:100200000C9451010C9479010C9479010C947901AE
:100210000C9479010C9479010C9479010C94790176
:100220000C9479010C9479010C9479010C94790166
:100230000C9479010C9479010C948E0D0C943F0E62
:100240000C9479010C9479010C9479010C94790146
:100250000C9479010C9479010C9479010C94790136
:100260000C9479010C94A40C0C9479010C947901F0
:100270000C9479010C9479010C9479010C94790116
:100280000C9479010C9479010C9479010C94790106
:100290000C94400C0C94F70B0C94D10B0C9479013A
:1002A0003D0F11241FBECFEFCDBFDFE3DEBF18E24D
:1002B000A0E0B8E2E7E4F8E302C005900D92A630B2
:1002C000B107D9F72AE2A6E0B8E201C01D92AF3C1F
:1002D000B207E1F711E0C1E5D1E004C02197FE01CA
:1002E0000E94821BC035D107C9F70E94E90F0C9408
:1002F000971B0C940001FC0154894589252F30E09F
:10030000842F90E0821B930B541710F0CF96089522
:1003100001970895FC0192898389981761F0A38958
:10032000AE0FBF2FB11D59968C9193899F5F9F731C
:10033000938B90E008958FEF9FEF0895FC019289D1
:100340008389981731F08389E80FF11D818D90E042
:1003500008958FEF9FEF0895FC0192892389892FDB
:1003600090E0805C9F4F821B91098F7399270895BD
:10037000CF93DF93EC01E881F9810680F781E02DCE
:100380000995EC85FD8586818F738683EC85FD85D7
:1003900085818F7585838B898A8B198ADF91CF91AF
:1003A0000895CF93DF93FC0194898589C485D58511
:1003B000981306C08D818F7D8D83DF91CF91089535
:1003C000A589AE0FBF2FB11DA75ABF4F2C918589AC
:1003D00090E001968F739927858B80E48C83A485A8
:1003E000B58512962C93948985899813E6CFA485B8
:1003F000B58515968C9115978F7D15968C93878969
:100400008823D9F2808D80931301178AD6CFDC011F
:100410001C96ED91FC910FB607FE03C0258125FDCA
:1004200004C0248125FD0C94D1010895EF92FF9220
:100430000F931F93CF93DF93EC0181E0898B9C890D
:100440008D8998131CC0AC85BD8514968C9114972A
:1004500085FF15C012966C93AC85BD8580E414961B
:100460008C93EC85FD8585818F7D858381E090E08F
:10047000DF91CF911F910F91FF90EF9008958091A0
:10048000110180FF08C080911301888F8E898093AD
:10049000130181E08F8BF62E0C8910E00F5F1F4F48
:1004A0000F731127E02E8D898E1104C0CE010E949A
:1004B0000702F9CFEC89EC0FFD2FF11DE75AFF4F32
:1004C000F0820C8BEC85FD8585818062CECFCF9349
:1004D000DF93FC0121892223C9F0EC0180911101F5
:1004E00080FF08C080911301808F8689809313015B
:1004F00081E0878BEC85FD85858185FD03C0848146
:1005000086FD04C0CE010E940702F4CFDF91CF9197
:100510000895AF92BF92CF92DF92EF92FF920F9326
:100520001F93CF93DF936C017B018B01040F151F89
:10053000EB015E01AE18BF08C017D10759F06991F1
:10054000D601ED91FC910190F081E02DC601099555
:10055000892B79F7C501DF91CF911F910F91FF9002
:10056000EF90DF90CF90BF90AF90089581E0089515
:10057000282F30E0F901E355F84840814F3F09F456
:100580004EC0893258F4F901EE5CF848E081EE2360
:1005900029F0E13099F010F0E63010F1F901EC5754
:1005A000F848E081A0E2EA9FF0011124FC5F80811D
:1005B000842311F1672BF1F446830895E091010A39
:1005C000D901A55AB8485C915C5F81E090E001C018
:1005D000880F5A95EAF780958E238093010ADECF23
:1005E00080E1E89FF0011124E05AF54F81818F7E70
:1005F0008183D4CF45830895255A3848D9018C91F9
:10060000309771F08F3F61F07096E80FF11D9FB742
:10061000F8948081672B39F4877F80839FBF08958A
:10062000F0E0E0E0F4CF8860F8CF893210F40C9469
:10063000B8020895CF93DF9390E0FC01E355F848AA
:1006400020812F3F69F0FC01EC57F848E08130E24F
:10065000E39FF0011124FC5F6130710521F42183D7
:10066000DF91CF910895855A9848EC01A881AF3F5A
:1006700069F0CF014096A80FB92FB11D9FB7F8942C
:1006800022838C9188608C939FBFEACFB0E0A0E07A
:10069000F5CF893210F40C941A030895CF92DF92AB
:1006A000EF92FF920F931F93CF93DF93EC016A01B8
:1006B0007B01022F8989882339F0E881F98102883A
:1006C000F389E02DCE01099598898091E205892B67
:1006D0008093E2051FB7F89460E070E281EA97E04A
:1006E000A70196010E942E1B69017A018FEFC81A9B
:1006F000D80AE80AF80AF694E794D794C794EC85E8
:10070000FD8586818D7F8683EC85FD858681868348
:10071000198AA09123110A2E000CBB0BA701960188
:100720000E947A1B20E034E040E050E00E94501B21
:10073000EC85FD85C20ED31EE41EF51EC086D18653
:10074000EC85FD850783EC85FD858681806C86833D
:10075000EC85FD858581806885838E8562E070E00B
:100760000E9449038F8561E070E00E9415038F8528
:1007700061E070E00E9449031FBFDF91CF911F919C
:100780000F91FF90EF90DF90CF9008958E5080935F
:10079000060681E08093080680910B0680FFFCCF5F
:1007A0002FB7F89480911006909111062FBF0895ED
:1007B000CF93DF938FB7F894209155293091562924
:1007C0004091572950915829E091BA0A9091B60A60
:1007D00090FF06C02F5F3F4F4F4F5F4FE091BA0A27
:1007E0008FBFA0915F29B0916029C0915D29D09100
:1007F0005E290E946F1BEC9F9001ED9F300D11242C
:10080000620F731F811D911DDF91CF9108958F920B
:100810009F92AF92BF92CF92DF92EF92FF924B01E5
:100820005C010E94D8036B017C01A8EEB3E0A50136
:1008300094010E946F1BC60ED71EE81EF91EC61635
:10084000D706E806F90618F40E94D803F8CF0E94EC
:10085000D8036C157D058E059F05C8F3FF90EF90BA
:10086000DF90CF90BF90AF909F908F900895BC0184
:1008700090E080E00C9407041F93CF93DF93FC017A
:1008800010811C3008F048C08181C8E8D0E0C81B46
:10089000D10987FDD395CC0FDD1FCC0FDD1F6C1761
:1008A0007D077CF08281C8E5D2E0C81BD10987FDB5
:1008B000D395CC0FDD1FCC0FDD1F6C177D070CF41B
:1008C000EB0160910028709101288091022890919D
:1008D000032820E432E44FE050E00E942E1B84E025
:1008E000369527958A95E1F725972C9FC0012D9F76
:1008F000900D3C9F900D11249C01369527953695BF
:100900002795812F90E0FC01EE0FFF1FE80FF91FE4
:10091000E15DF64D21833283DF91CF911F910895E0
:100920001F93CF93DF93EC01162F88818C3008F052
:1009300047C061E070E0812F0E9449038881282F21
:1009400030E0D901AA0FBB1FFD01E20FF31FE15DEB
:10095000F64D1F736081607C612B608319821A825F
:100960004CE0642F0E940E1B849FC001112450E0B4
:1009700040E0BC01640F751FFB01EE0FFF1FE60F87
:10098000F71FE15DF64D608166FD12C04F5F5F4F5E
:100990004C30510571F784E08093A00A1092A10AAF
:1009A00081E08093A50A8091A00A81608093A00ACB
:1009B0002A0F3B1FF901E15DF64D80818064808341
:1009C0008881DF91CF911F9108950F9391E09093CB
:1009D0002C2910922B296093292970932A2940935E
:1009E000282920932729109226291092252900933F
:1009F0002429880F8093232923E030E044E050E04D
:100A000080912829882341F020932129309322299D
:100A1000809123298E7F0BC080912729882351F054
:100A2000409321295093222980912329816080932A
:100A3000A70808C080912829811104C08091272926
:100A4000882311F380912B298823E1F380912B29AE
:100A50008330B1F280912729882321F080912529C4
:100A60000F91089580912B29823031F0853031F03B
:100A7000813031F480E0F4CF81E0F2CF83E0F0CF39
:100A800084E0EECFE0EAF8E091859066918722E07D
:100A900030E020932129309322298093132910924A
:100AA0001229089581E0809312291092132993E06E
:100AB0009093AA089091AB0891FF10C010921F2943
:100AC000E0911029F0911129099580931E2985E064
:100AD00090E0809321299093222908951092202953
:100AE00080931D2986E090E0F4CF8F929F92AF9281
:100AF000BF92CF92DF92EF92FF92CF93DF93603459
:100B00002DE0720723E08207910508F454C06115B7
:100B100025E372072CE08207910508F445C0603890
:100B20007F448241910508F046C0C8E7D0E020E448
:100B300032E44FE050E08090002890900128A0908F
:100B40000228B0900328C501B4010E942E1B690140
:100B50007A018AE0C81AD108E108F108C501B40198
:100B600020E432E44FE050E00E942E1BDE010E94A0
:100B70006F1B28EE33E040E050E00E942E1BC21AAB
:100B8000D30AE40AF50AF694E794D794C794C0927E
:100B9000A608DF91CF91FF90EF90DF90CF90BF90AC
:100BA000AF909F908F900895CCE2D1E020E83AE199
:100BB00046E050E0C0CFC8EED3E020EA36E841E09E
:100BC00050E0B9CF60930E2970930F290895609378
:100BD0000C2970930D290895E0910E29F0910F29A9
:100BE000309741F010920B2910920A2909958091B3
:100BF0000A29089580E00895E0910C29F0910D29CB
:100C0000309759F03091092920910829321728F09E
:100C10001092092980930829099408950895E09174
:100C2000092980910829E81730F4F0E0E857F74DDA
:100C3000808190E008958FEF9FEF089590910929AA
:100C4000809108292FEF3FEF981748F4E92FF0E043
:100C5000E857F74D208130E09F5F90930929C90143
:100C600008958091082990910929891B990B08956D
:100C7000CF92DF92EF92FF920F931F93CF93DF9368
:100C80007C018A01EB016B01C40ED51ECC15DD057C
:100C900051F06991D701ED91FC910190F081E02D27
:100CA000C7010995F3CFC801DF91CF911F910F9133
:100CB000FF90EF90DF90CF90089520910A2927FFB1
:100CC00008C021E030E0FC012283338390E080E023
:100CD000089580910B29E82FF0E0E85FF74D6083DD
:100CE0008F5F80930B2980930A2981E090E008951B
:100CF000DC01ED91FC91008CF18DE02D61E0099417
:100D00000F9380912129909122290197A1F480913C
:100D10002C29811112C0062F20E040910A2968E099
:100D200078E2809107280E94E50410920B29109226
:100D30000A290F91089580E0F8CF81E0F6CF609303
:100D4000072810920B2910920A290895DC01ED91D1
:100D5000FC91048CF58DE02D21E009940F9388E837
:100D600098E28093142990931529809121299091DC
:100D700022290197C9F480912C29811117C0FA0109
:100D80004138510510F0E0E8F0E0022F862F2E2FB9
:100D900040E070E060E00E94E50410920929809331
:100DA000082990E00F91089580E0F7CF81E0F5CF1A
:100DB000CB01BA010C947505E0EAF8E013821682C3
:100DC00081E08583148611861092212910922229B0
:100DD0000895109209291092082910920B29109257
:100DE0000A298091212990912229892BD9F482E026
:100DF00090E080932129909322291092202910922B
:100E00001F2910921229109213291092062810926D
:100E10001D29660F6093AC0881EE8093A90881E0DC
:100E20008093A3088CEE95E080931029909311296C
:100E300088E098E280931629909317298CEF95E02B
:100E400080931B2990931C2988E898E280931829A5
:100E50009093192980E880931A29089510920929FE
:100E60001092082910920B2910920A2980912129A9
:100E700090912229892BF1F48091E3058093E30579
:100E800081E090E0809321299093222910922529D6
:100E90001092262910922C2910922B2981EC8093F4
:100EA000A30860EA76E881E090E00E94750581E0A1
:100EB0008093A508089590E080E008951F93CF9354
:100EC000DF931F92CDB7DEB71982A0916D29B09143
:100ED0006E29109761F1182F1B96ED91FC911C97CC
:100EE00021E0AE014F5F5F4F67E018968C91099546
:100EF00081111FC01983A0916D29B0916E29199697
:100F0000ED91FC911A9721E0AE014F5F5F4F67E0D2
:100F100018968C910995811105C0E0916D29F09189
:100F20006E2913830F90DF91CF911F91089581E86F
:100F3000F9CF8FEFF7CFCF93DF931F92CDB7DEB707
:100F40001982E0916D29F0916E29309759F08381D3
:100F5000811142C0E0916D29F0916E29838188232F
:100F600009F43FC01982E0916D29F0916E29309704
:100F700059F0838181114FC0E0916D29F0916E2964
:100F80008381882309F44CC01982E0916D29F09186
:100F90006E29309759F08381811157C0E0916D29F6
:100FA000F0916E298381882309F454C01982E0915D
:100FB0006D29F0916E29309759F08381811165C0B8
:100FC000E0916D29F0916E298381882309F462C034
:100FD0000F90DF91CF91089580E00E945E0781110C
:100FE000B9CFA0916D29B0916E291B96ED91FC911E
:100FF0001C9721E0AE014F5F5F4F65E318968C911F
:101000000995898190E09595879595958795837049
:101010008093C22AA7CF80E00E945E078111ACCFE7
:10102000A0916D29B0916E291B96ED91FC911C97B2
:1010300021E0AE014F5F5F4F65E318968C910995F3
:10104000898183708093C32A9FCF80E00E945E07CE
:101050008111A4CFA0916D29B0916E291B96ED91BD
:10106000FC911C9721E0AE014F5F5F4F65E318963E
:101070008C910995898190E024E0959587952A9532
:10108000E1F783708093C42A91CF80E00E945E07CD
:10109000811196CFA0916D29B0916E291B96ED918B
:1010A000FC911C9721E0AE014F5F5F4F65E31896FE
:1010B0008C91099589818295869586958370809318
:1010C000C52A86CF0F931F93CF93DF931F92CDB77F
:1010D000DEB71982E0916D29F0916E29309761F1A8
:1010E0008C01838181110EC0E0916D29F0916E29F0
:1010F0008381882361F08FEF0F90DF91CF911F9153
:101100000F91089580E00E945E078111EDCFA091BC
:101110006D29B0916E291B96ED91FC911C9721E0F1
:10112000AE014F5F5F4F6DE318968C9109959981E1
:101130009F70F8019083E0CF81E8DECF0F931F937B
:10114000CF93DF9300D0CDB7DEB719821A822091FA
:101150006D2930916E2911E8232BF1F1082FCE0172
:1011600002960E9462081FEF811136C0A0916D297E
:10117000B0916E291B96ED91FC911C9718968C915D
:101180009A8121E0AE014F5F5F4F6DE391112CC05A
:101190000995182F811120C09981907F0F70092B1C
:1011A0000983A0916D29B0916E291996ED91FC915A
:1011B0001A9721E0AE014F5F5F4F6DE318968C9157
:1011C0000995182FE0916D29F0916E290584F68517
:1011D000E02D88E592E00995812F0F900F90DF9127
:1011E000CF911F910F9108950995182F811121C05A
:1011F0008981807F8983A0916D29B0916E2911E842
:10120000109769F01996ED91FC911A9721E0AE01C3
:101210004F5F5F4F6DE318968C910995182FE09101
:101220006D29F0916E290584F685E02D84E190E02A
:101230000995002389F2A0916D29B0916E291B9622
:10124000ED91FC911C9721E0AE014F5F5F4F6DE384
:1012500018968C919DCFCF92DF92EF92FF921F93C1
:10126000CF93DF93CDB7DEB72797CDBFDEBF19820F
:10127000E0916D29F0916E29309769F41FEF812F6D
:101280002796CDBFDEBFDF91CF911F91FF90EF90EA
:10129000DF90CF90089583818111A5C0E0916D29E1
:1012A000F0916E2983818111E9CFA0916D29B091D0
:1012B0006E291B96ED91FC911C9721E0CE010196C1
:1012C0007C01AC016BE318968C910995D82E89812D
:1012D00082FF17C01F82198280916D2990916E291B
:1012E00011E8892B69F0C7010E946208882309F47C
:1012F00080C01FEF8981882319F00E949E08180F73
:10130000D10ED110BBCF86E0F70111928A95E9F793
:10131000E0916D29F0916E29309709F4AFCF838168
:10132000811198C0E0916D29F0916E29838181111E
:10133000A5CFA0916D29B0916E291B96ED91FC91DE
:101340001C9726E0A7016AE118968C910995182F41
:101350006A818981762F682FEC808B81FE2CE82EA4
:10136000CE808D81DC2CC82E111188CF072E000C69
:10137000880B990B0E94E71920E030E040E85DE31C
:101380000E949C1A60939E2A70939F2A8093A02AA1
:101390009093A12AB601DD0C880B990B0E94E719E6
:1013A00020E030E040E85DE30E949C1A6093A62AAA
:1013B0007093A72A8093A82A9093A92AB701FF0CBB
:1013C000880B990B0E94E71920E030E040E85DE3CC
:1013D0000E949C1A6093A22A7093A32A8093A42A45
:1013E0009093A52A4CCF80E00E945E07811156CFD2
:1013F0005CCF8981811128C0A0916D29B0916E299F
:101400001B96ED91FC911C9721E0AE01495F5F4F67
:101410006BE318968C910995182F81116BCF8F81F2
:101420008B7F8F83A0916D29B0916E291996ED91D4
:10143000FC911A9721E0AE01495F5F4F6BE318966C
:101440008C910995182F56CF80E00E949E08882322
:1014500099F24FCF80E00E945E07811163CF69CF80
:101460000F931F93CF93DF93162FEA01022F682F5C
:101470008AE09AE20E949F06612F8AE09AE20E9427
:101480005D060C0F1D2F111DC017D10731F069919A
:101490008AE09AE20E945D06F7CF8AE09AE20E9413
:1014A0007806E3E5F2E03197F1F7DF91CF911F91F4
:1014B0000F910895FF920F931F93CF93DF93D82F2F
:1014C000F62E8A01C22F682F8AE09AE20E949F06B8
:1014D0006F2D8AE09AE20E945D068AE09AE20E94FD
:1014E0007806F82E83E592E00197F1F74C2F50E053
:1014F00021E06D2F8AE09AE20E94AE0690910829C1
:1015000080910929981741F08AE09AE20E941E060C
:10151000F80181938F01F2CF8F2DDF91CF911F9131
:101520000F91FF900895CF93C82F8FE00E94C603BC
:1015300021E0883C91050CF020E02C1771F069E166
:1015400070E080E090E00E9407048FE00E94C603F4
:10155000C1E0883C91050CF0C0E08C2FCF9108953C
:10156000DC01ED91FC910088F189E02D23E030E071
:101570000994FC0101900020E9F73197AF01481B65
:10158000590BBC018FE699E20C9489028F929F92CD
:10159000AF92BF920F931F93CF93DF93CDB7DEB778
:1015A000A197CDBFDEBF19A2423008F44AE08E01F8
:1015B0000F5D1F4F842E912CB12CA12CA5019401FD
:1015C0000E942E1BE62FB901CA01EA30DCF4E05D6F
:1015D000D801EE938D01232B242B252B79F790E056
:1015E00080E0109719F0CD010E94B90AA196CDBFF5
:1015F000DEBFDF91CF911F910F91BF90AF909F9071
:101600008F900895E95CE4CF4F925F926F927F9242
:101610008F929F92AF92BF92CF92DF92EF92FF9202
:101620006B017C01AC019B010E94091B882381F0A6
:1016300088E198E7FF90EF90DF90CF90BF90AF9058
:101640009F908F907F906F905F904F900C94B90A0D
:1016500046015701E894B7F82FEF3FEF4FE75FE7F8
:10166000C501B4010E94091B81110DC02FEF3FEF8E
:101670004FE75FE7C501B4010E94381918161CF442
:101680008CE198E7D7CF2FEF3FEF4FE75FE4C7013B
:10169000B6010E94971A18161CF480E298E7CACF88
:1016A0002FEF3FEF4FE75FECC701B6010E943819FB
:1016B00087FDF3CF20E030E0A901C701B6010E9409
:1016C0003819B12CA12C87FF0AC06DE28FE699E290
:1016D0000E9416025C01F7FAF094F7F8F0942AE001
:1016E00037ED43EA5BE3C701B6010E94CC182B013A
:1016F0003C010E94B6196B017C010E94E5199B0117
:10170000AC01C301B2010E94CB182B013C014AE09D
:10171000C701B6010E94C60A7C01EA0CFB1C84E2E8
:1017200098E70E94B90AE80EF91E20E030E040E296
:1017300051E4C301B2010E949C1A2B013C010E949A
:10174000B6194B01B12CA12C4AE0C501B4010E948D
:10175000C60AE80EF91EC501B4010E94E5199B01F5
:10176000AC01C301B2010E94CB1820E030E040E29E
:1017700051E40E949C1A0E94B61990E080E04AE071
:101780000E94C60A8E0D9F1DFF90EF90DF90CF90B4
:10179000BF90AF909F908F907F906F905F904F9091
:1017A00008951F920F920FB60F9211242F933F931B
:1017B0004F935F936F937F938F939F93AF93BF9359
:1017C000EF93FF938FE699E20E94D101FF91EF9191
:1017D000BF91AF919F918F917F916F915F914F9149
:1017E0003F912F910F900FBE0F901F9018951F9251
:1017F0000F920FB60F9211242F933F934F935F9345
:101800006F937F938F939F93AF93BF93EF93FF93C8
:10181000E0917B29F0917C29818181FD2FC060813D
:10182000809181298F5F8F7390918229891741F070
:10183000E0918129F0E0E159F64D618F8093812993
:101840008091082A9091092A009739F0DC01ED91E6
:10185000FC910190F081E02D0995FF91EF91BF91EE
:10186000AF919F918F917F916F915F914F913F9138
:101870002F910F900FBE0F901F9018958081EDCF84
:101880001F920F920FB60F9211242F933F934F93F5
:101890005F936F937F938F939F93AF93BF93409189
:1018A000162A5091172A6091182A7091192A80914E
:1018B00053299091542920915B2930915C29420F42
:1018C000531F611D711D2091592930915A29820F92
:1018D000931F883E23E0920730F0885E93404F5F6D
:1018E0005F4F6F4F7F4F80935329909354294093BC
:1018F000162A5093172A6093182A7093192A8091F8
:10190000552990915629A0915729B09158290196AF
:10191000A11DB11D8093552990935629A093572955
:10192000B093582981E08093B60ABF91AF919F91FF
:101930008F917F916F915F914F913F912F910F9078
:101940000FBE0F901F9018951F920F920FB60F9217
:1019500011240F931F932F933F934F935F936F9394
:101960007F938F939F93AF93BF93CF93DF93EF9327
:10197000FF9380912D29C0912E29D0E087FF52C07E
:101980001092AC0A1092AD0A80912D298F5F80933E
:101990002D2980912D29082E000C990B8C179D075D
:1019A0002CF480912D298C300CF467C0C091AC0AC6
:1019B000D091AD0A60910028709101288091022891
:1019C0009091032820E432E44FE050E00E942E1B67
:1019D00054E0369527955A95E1F740E85EE3249F59
:1019E000C001259F900D349F900D112496958795E9
:1019F00096958795AE0170E060E04C5F5F4F6F4F4A
:101A00007F4F8C0130E020E04017510762077307D9
:101A100008F07EC08093AC0A9093AD0A8FEF80935C
:101A20002D295EC080912D29082E000C990B8C1752
:101A30009D070CF0A9CFE0912D298E2FEE0F990B69
:101A4000FC01EE0FFF1FE80FF91FE15DF64D8081ED
:101A500086FF9ACFE0912D298E2FEE0F990BFC0176
:101A6000EE0FFF1FE80FF91FE15DF64D808170E07A
:101A700060E08F730E94150387CFE0912D298E2F90
:101A8000EE0F990BFC01EE0FFF1FE80FF91FE15D50
:101A9000F64D808186FF12C0E0912D298E2FEE0F2A
:101AA000990BFC01EE0FFF1FE80FF91FE15DF64DEA
:101AB000808161E070E08F730E941503E0912D2911
:101AC0008E2FEE0F990BFC01EE0FFF1FE80FF91F91
:101AD000E15DF64D818192818093AC0A9093AD0ACD
:101AE00081E08093A60AFF91EF91DF91CF91BF91A2
:101AF000AF919F918F917F916F915F914F913F91A6
:101B00002F911F910F910F900FBE0F901F9018955E
:101B10002496C093AC0AD093AD0A80CF1F920F9247
:101B20000FB60F9211242F933F934F935F936F93B0
:101B30007F938F939F93AF93BF93CF93EF93FF9335
:101B4000C091AB08C2FF0AC01092202910921F2931
:101B500010921E2984E00E94420514C0C6FF2FC0C7
:101B600080911D29813051F480912029E0911B2919
:101B7000F0911C2990E0099510921D29C0FF14C016
:101B80000E945205FF91EF91CF91BF91AF919F912C
:101B90008F917F916F915F914F913F912F910F9016
:101BA0000FBE0F901F90189580E48093AB0881E0E2
:101BB0000E9442058091AB0885FFE4CFE1CFC7FFCB
:101BC0005CC0C3FF08C01092202910921F291092F8
:101BD0001E2983E0C0CF8091A90880668093A90860
:101BE0008091AB0881FF2CC080911F29882349F088
:101BF0008091AB0884FF05C082E08093AA0881E051
:101C0000AACF90911F2980911E299817A8F4E091DE
:101C10001F298091162990911729E80FF92FF11D9E
:101C200080818093AD0880911F298F5F80931F2949
:101C300083E08093AA08A6CF82E08093AA088BCF86
:101C40009091202980911A29981790F48091AD08DD
:101C5000E09120292091182930911929E20FF32FC2
:101C6000F11D8083809120298F5F80932029E0CF10
:101C700086E08093AA0882E06ECF85E06CCF1F9249
:101C80000F920FB60F9211242F933F938F939F9330
:101C9000EF93FF938091A508982F9C70E1F08091BD
:101CA000A50894E082FF93E090932B298093A508E8
:101CB00081E090E0809321299093222910922C2991
:101CC000FF91EF919F918F913F912F910F900FBEB8
:101CD0000F901F90189586FF4EC020912829909153
:101CE00027298091A50884FF15C080912429882385
:101CF00079F083E08093A40885E080932B291092EB
:101D00002C2981E090E08093212990932229D8CF3B
:101D100081E0F0CF80912629821790F4E091262966
:101D20008091292990912A29E80FF92FF11D8081AE
:101D30008093A808809126298F5F80932629C0CFA1
:101D400080912529891760F484E090E0809321290F
:101D5000909322298091232981608093A708B0CF96
:101D600080912429882329F083E08093A40881E0CE
:101D7000C4CF81E0FACF87FF40C0909125298091A0
:101D800027299817D8F48091A808E0912529209157
:101D9000142930911529E20FF32FF11D80838091D2
:101DA00025298F5F809325299091272980912529C6
:101DB0008917D8F482E08093A40882CF80912429E7
:101DC000882389F087E08093A40882E080932B2900
:101DD00010922C2981E090E0809321299093222970
:101DE000109227296DCF85E0EECF8091242988239A
:101DF00011F087E0BACF85E0B8CF86E07ECFCF93F1
:101E0000DF93C0912E29CC30A0F521E02C0F209338
:101E10002E29FC01C083D0E0609100287091012838
:101E2000809102289091032820E432E44FE050E0B2
:101E30000E942E1B84E0369527958A95E1F74CED9C
:101E400055E0249FC001259F900D349F900D1124D3
:101E50009C013695279536952795CE01880F991FB9
:101E6000C80FD91FC15DD64D29833A83DF91CF9129
:101E700008952FEFFC012083F9CFEFE6F9E21282FB
:101E8000138288EE93E0A0E0B0E084839583A6837C
:101E9000B7832AED37E72083318320E638E02487B3
:101EA00035872AE126872BE1278720E4208B128AB9
:101EB000138A148A158A26E2268B178A108E1092AE
:101EC000082A1092092AEAE0FAE212821382848335
:101ED0009583A683B78384EF97E7808391838CEC07
:101EE0009AE20E94FF0E89EC9AE20E94FF0EE6E25F
:101EF000FAE28EE19AE2868F978F82E29AE2848FED
:101F0000958F8AE19AE280A391A312AE12AA13AA36
:101F100014AA15AA80E090E0AFE7B3E486AB97ABD4
:101F2000A0AFB1AF84E690E0A0E0B0E086A797A7AD
:101F3000A0ABB1AB81E090E0808F918F828F938FC7
:101F400083AF8AE999E9A9E9BFE380839183A283FA
:101F5000B3838DEC9CECACE4BDE384839583A683D2
:101F6000B78380E090E0A0E0B0E480879187A2870B
:101F7000B3878AE999E9A9E9BFEB84879587A687A2
:101F8000B7878BE097EDA3EABBEB808B918BA28B9D
:101F9000B38B80E090E0A0EAB1EC848B958BA68BAC
:101FA000B78B2FB7F8948091162A9091172AA09199
:101FB000182AB091192A2FBF46A557A560A971A963
:101FC000841B950BA60BB70B82A393A3A4A3B5A365
:101FD0000895CF93DF93CDB7DEB76797CDBFDEBF50
:101FE00088ED90E084BF9093610080E094E2A4EFDC
:101FF000B0E08093002890930128A0930228B0932A
:102000000328809102068660809302068091000674
:10201000816080930006809102068F7C8093020687
:102020008091A0008F788093A0008091020680614B
:10203000809302061092E20581E08093E40583E03C
:102040008093010A8FEF90E08093260A9093270AED
:1020500080E890E08093380A9093390A80933A0A96
:1020600090933B0A80933C0A90933D0A8BE08093C7
:10207000000A8091E50581608093E5058091E50582
:1020800082608093E505E0E8FAE037E02FEF90E822
:1020900085E031832487958780837096E03C4AE011
:1020A000F407B9F780E094E080935F29909360296A
:1020B00080915F29909160292FEF30E0B9010E9453
:1020C0001A1B60935D2970935E2980915F2990911E
:1020D0006029E8EEF3E0BF010E941A1B60935B29C0
:1020E00070935C2980915F2990916029BF010E94C3
:1020F0001A1B8093592990935A292093BC0A309334
:10210000BD0A8091B50A81608093B50A84E080930E
:10211000B00A8091B00A81608093B00A789461E03F
:1021200070E08CE10E941A0361E070E08CE10E9493
:10213000B80261E070E08DE10E941A0361E070E096
:102140008DE10E94B80261E070E083E20E941A0310
:1021500061E070E083E20E94B80261E070E08EE12D
:102160000E941A0361E070E08EE10E94B80240E034
:1021700052EC61E070E08FE699E20E94B00A8AE0DA
:102180009AE20E942E0762E070E082E00E9449031A
:1021900061E070E087E00E94490370E060E087E062
:1021A0000E9415036CE271E080E090E00E94070459
:1021B00061E070E087E00E94150368E572E080E06E
:1021C00090E00E9407048AE59AE080936E2A90933B
:1021D0006F2A80E39AE080936C2A90936D2A87E3BC
:1021E00094E08093702A9093712A88E280936B2AFE
:1021F00018861F8219821A8283E69AE280936D29DB
:1022000090936E2921E0AE01495F5F4F67E088E25D
:102210000E94300AA0916D29B0916E291B96ED9114
:10222000FC911C9721E0AE01485F5F4F60E018967B
:102230008C910995A0916D29B0916E2988858C9318
:102240001B96ED91FC911C9721E0AE01485F5F4F1A
:1022500061E018968C910995A0916D29B0916E2935
:10226000888514968C9314971B96ED91FC911C977E
:1022700021E0AE01485F5F4F62E018968C910995AE
:10228000A0916D29B0916E29888515968C9315972C
:102290001B96ED91FC911C9721E0AE01485F5F4FCA
:1022A00063E018968C910995A0916D29B0916E29E3
:1022B000888516968C9316971B96ED91FC911C972A
:1022C00021E0AE01485F5F4F66E018968C9109955A
:1022D000A0916D29B0916E29888517968C931797D8
:1022E0001B96ED91FC911C9722E0AE014F5F5F4F72
:1022F00064E018968C910995A0916D29B0916E2992
:1023000089819A8111968D939C9312971B96ED91DA
:10231000FC911C9721E0AE01485F5F4F67E0189683
:102320008C91099500916D2910916E298885D801AD
:1023300013968C9362E370E080E090E00E940704C3
:102340001F821982012B01F1CE0101960E946208C1
:10235000811116C089818111DEC0A0916D29B091D3
:102360006E291B96ED91FC911C9721E0AE01495F0F
:102370005F4F6BE318968C910995882309F4D2C0BE
:10238000898181110E949E081092622A8CE00E942D
:102390009E0881E08093622A1982E0916D29F09174
:1023A0006E29309761F08381813009F0CFC0E091D0
:1023B0006D29F0916E298381813009F4CCC0198296
:1023C000E0916D29F0916E29309761F08381813021
:1023D00009F0D6C0E0916D29F0916E29838181309A
:1023E00009F4D3C01982E0916D29F0916E293097DC
:1023F00061F08381813009F0E2C0E0916D29F091B4
:102400006E298381813009F4DFC081E08093042844
:1024100065E070E08CEC9AE20E94900466E070E067
:1024200089EC9AE20E94900461E070E080E090E024
:102430000E94070460ED77E08CEC9AE20E943C0475
:1024400060ED77E089EC9AE20E943C0464EF71E071
:1024500080E090E00E94070468EE73E08CEC9AE262
:102460000E943C0468EE73E089EC9AE20E943C040E
:1024700064E670E080E090E00E94070460E777E1A6
:1024800080E090E00E94070410921A2A10921B2A02
:1024900010921C2A10921D2A8091602A0091442AD1
:1024A0001091452A8111B7C0F801C080D180E28027
:1024B000F380C0924C2AD0924D2AE0924E2AF0929C
:1024C0004F2AE091422AF091432A80819181A28192
:1024D000B3818093502A9093512AA093522AB093AB
:1024E000532A80905C2A90905D2AA0905E2AB0903A
:1024F0005F2AA5019401C701B6010E94971A181618
:102500000CF079C080924C2A90924D2AA0924E2ACB
:10251000B0924F2A80C080E00E949E08882309F470
:102520001CCF2ECF8F8180688F83A0916D29B091B1
:102530006E291996ED91FC911A9721E0AE01495F41
:102540005F4F6BE318968C9109951ACF81E00E943A
:102550005E0781112CCFA0916D29B0916E291B9639
:10256000ED91FC911C9721E0AE014F5F5F4F68E059
:1025700018968C910995898183708093C62A1FCF04
:1025800081E00E945E07811125CFA0916D29B09155
:102590006E291B96ED91FC911C9721E0AE014F5FD7
:1025A0005F4F68E018968C910995898190E0959528
:1025B00087959595879587708093C72A13CF81E07B
:1025C0000E945E07811119CFA0916D29B0916E29EB
:1025D0001B96ED91FC911C9721E0AE014F5F5F4F80
:1025E00068E018968C910995898182958695877007
:1025F0008093C82A0ACF8090582A9090592AA09098
:102600005A2AB0905B2AA5019401C701B6010E9425
:10261000381987FD77CF81E08093602A2091402A86
:102620003091412A2130310509F080E08093612A00
:102630002AE9822E29E9922EA92C2FE3B22E80922C
:10264000262A9092272AA092282AB092292A8DEC35
:102650009CECACE4BDE380932A2A90932B2AA093B0
:102660002C2AB0932D2A80E090E0A0E0B0E4809383
:102670002E2A90932F2AA093302AB093312A60916A
:10268000542A7091552A8091562A9091572A0E9477
:10269000E51920E030E04AE754E40E943D196B015F
:1026A0007C018092322A9092332AA092342AB092EE
:1026B000352A2DEC3CEC4CE45DE30E949C1A4B0166
:1026C0005C018092362A9092372AA092382AB092E2
:1026D000392AA701960160E070E080E090E40E9452
:1026E0003D196B017C01C0923A2AD0923B2AE092BC
:1026F0003C2AF0923D2A80913E2A90913F2A0197F0
:1027000051F58AE999E9A9E9BFEB8093322A9093C0
:10271000332AA093342AB093352AA501940160E0AE
:1027200070E0CB010E94CB186093362A7093372A51
:102730008093382A9093392AA701960160E070E0CF
:10274000CB010E94CB1860933A2A70933B2A809366
:102750003C2A90933D2AC12CD12C80E7E82E82ECB4
:10276000F82EC092582AD092592AE0925A2AF09212
:102770005B2A412C512C90E7692E92E4792E4092ED
:102780005C2A50925D2A60925E2A70925F2AD8017C
:102790008D909D90AD90BC90A3019201C501B401B4
:1027A0000E94971A18160CF0ECC2F8014082518270
:1027B0006282738280904C2A90904D2AA0904E2A7B
:1027C000B0904F2AC0905C2AD0905D2AE0905E2A9B
:1027D000F0905F2AA7019601C501B4010E94971AE3
:1027E00018160CF0DFC2C0924C2AD0924D2AE0920B
:1027F0004E2AF0924F2AFE013196E987FA8710910E
:102800000528812F0E94930A882309F4DCC2111144
:10281000DAC2F1E0F093052880910428882309F4B6
:1028200044C01982E0916D29F0916E29309759F0DA
:1028300083818111D3C2E0916D29F0916E2983814A
:10284000882309F4D0C2A985BA85E6E01D92EA95ED
:10285000E9F7E0916D29F0916E29309759F0838165
:10286000811198C3E0916D29F0916E2983818823AD
:1028700009F495C3A985BA85E6E01D92EA95E9F7C2
:10288000E0916D29F0916E29309759F08381811183
:10289000E1C3E0916D29F0916E298381882309F4C9
:1028A000DEC30E949B07109204282FB7F8948091F2
:1028B000162A9091172AA091182AB091192A2FBF91
:1028C0004091692950916A2960916B2970916C2916
:1028D000841B950BA60BB70B0A97A105B10508F44D
:1028E00048C22FB7F8948091162A9091172AA09188
:1028F000182AB091192A2FBF8093692990936A29C9
:10290000A0936B29B0936C290E942B090E949B070E
:1029100080910528882309F4FDC31092222A109281
:10292000232A1092242A1092252A8091602A882333
:1029300009F425C18FB7F8942091162A3091172AEF
:102940004091182A5091192A2C8B3D8B4E8B5F8B0E
:102950008FBF8091482A9091492AA0914A2AB0912C
:102960004B2A4C895D896E897F89481B590B6A0BFC
:102970007B0B8091542A9091552AA091562AB091B0
:10298000572A481759076A077B0708F4F8C0E091EF
:10299000422AF091432A80819181A281B3818B8761
:1029A0009C87AD87BE87E091462AF091472A9C011B
:1029B000AD0160817181828193810E94CB184B01AE
:1029C0005C012091502A3091512A4091522A509115
:1029D000532A6B857C858D859E850E94CB186B0163
:1029E0007C012091362A3091372A4091382A509123
:1029F000392AC501B4010E949C1A20914C2A3091B9
:102A00004D2A40914E2A50914F2A0E94CC182B01FA
:102A10003C0140924C2A50924D2A60924E2A70926C
:102A20004F2A9091612A9F8791111AC02091322AD2
:102A30003091332A4091342A5091352AC701B6018A
:102A40000E949C1A9B01AC01C301B2010E94CB18E9
:102A500060934C2A70934D2A80934E2A90934F2A6C
:102A600040904C2A50904D2A60904E2A70904F2AE8
:102A700020905C2A30905D2A00915E2A10915F2A96
:102A80009101A801C301B2010E94971A18160CF017
:102A90005BC3C101D80180934C2A90934D2AA09327
:102AA0004E2AB0934F2A9F85992309F464C320913D
:102AB000322A3091332A4091342A5091352AC50167
:102AC000B4010E949C1A4B015C0120913A2A30917A
:102AD0003B2A40913C2A50913D2AC701B6010E94F1
:102AE0009C1A9B01AC0160914C2A70914D2A8091F7
:102AF0004E2A90914F2A0E94CB18A50194010E9462
:102B0000CC186B017C019B01AC01B101C8010E9492
:102B1000381987FD12C02090582A3090592A009108
:102B20005A2A10915B2A9101A801B601C7010E949F
:102B3000381987FD02C016018701E091442AF091FF
:102B4000452AC101D80180839183A283B3832B8559
:102B50003C854D855E852093502A3093512A4093C1
:102B6000522A5093532A8C899D89AE89BF898093BC
:102B7000482A9093492AA0934A2AB0934B2A86E286
:102B800098E70E94B90A6091222A7091232A8091C5
:102B9000242A9091252A0E94040B8EE298E70E9435
:102BA000B90A60911E2A70911F2A8091202A909163
:102BB000212A0E94040B88E398E70E94B90A6091D9
:102BC0001A2A70911B2A80911C2A90911D2A0E941A
:102BD000040BC0901E2AD0901F2AE090202AF0906B
:102BE000212AA701960160E070E086E994E40E9442
:102BF000CB184B015C018092652990926629A092C6
:102C00006729B092682920E030E046E954E4C70122
:102C1000B6010E94CC186B017C01C0926129D09250
:102C20006229E0926329F092642920E030EC48EABE
:102C300054E4C501B4010E94971A18160CF09FC203
:102C400080E090ECA8EAB4E480936529909366292B
:102C5000A0936729B09368299C01AD01C701B60113
:102C60000E94971A181644F580E090ECA8EAB4E4A4
:102C70008093612990936229A0936329B09364297A
:102C800020E030E443E854E46091652970916629BE
:102C900080916729909168290E94381987FF0CC09C
:102CA00080E090E4A3E8B4E48093652990936629DA
:102CB000A0936729B093682920E030E443E854E406
:102CC00060916129709162298091632990916429B2
:102CD0000E94381987FF0CC080E090E4A3E8B4E4B8
:102CE0008093612990936229A0936329B09364290A
:102CF00010910528112361F020E030E04AE754E408
:102D00002093652930936629409367295093682959
:102D10006091652970916629809167299091682951
:102D20000E94AF198CEC9AE20E943C04112361F0DE
:102D300080E090E0AAE7B4E480936129909362294F
:102D4000A0936329B09364296091612970916229ED
:102D500080916329909164290E94AF1989EC9AE2CD
:102D60000E943C0484E498E70E94B90A91E09093A1
:102D70000428A0E0B0E0AB2B09F441CD0E94000094
:102D80003ECD20E030E040E752ECC501B4010E94A6
:102D9000381987FF0FCDD801CD92DD92ED92FC92CC
:102DA000139708CDC090582AD090592AE0905A2AFB
:102DB000F0905B2AA7019601C501B4010E94381961
:102DC00087FF19CD10CD812F0E94930A811124CD48
:102DD000112309F421CD109205281ECD80E00E9418
:102DE0005E07811128CDA0916D29B0916E291B96A7
:102DF000ED91FC911C9721E0AE014F5F5F4F6BE3BB
:102E000018968C910995082F898180FF18C01F8220
:102E1000198280916D2990916E2911E8892B71F0AA
:102E2000CE0101960E946208882309F47CC01FEF3E
:102E30008981882319F00E949E08180F010FE091E4
:102E40006D29F0916E290111FECCA985BA8526E085
:102E50001D922A95E9F7309709F4F5CC8381811109
:102E600093C0E0916D29F0916E2983818111EBCCA3
:102E7000A0916D29B0916E291B96ED91FC911C9744
:102E800026E0AE014F5F5F4F68E018968C91099580
:102E90006A819981762F692FEC809B81FE2CE92E27
:102EA0000E819D81102F092F8111CDCC072E000C92
:102EB000880B990B0E94E71920E030E048EC52E4BF
:102EC0000E943D196093722A7093732A8093742A2A
:102ED0009093752AB701FF0C880B990B0E94E71994
:102EE00020E030E048EC52E40E943D196093762ADD
:102EF0007093772A8093782A9093792AB801110FDA
:102F0000880B990B0E94E71920E030E048EC52E46E
:102F10000E943D1960937A2A70937B2A80937C2AC1
:102F200090937D2A90CC8981811128C0A0916D2930
:102F3000B0916E291B96ED91FC911C9721E0AE019A
:102F4000495F5F4F6BE318968C910995182F81119B
:102F50006FCF8F818E7F8F83A0916D29B0916E2965
:102F60001996ED91FC911A9721E0AE01495F5F4FF0
:102F70006BE318968C910995182F5ACF80E00E9428
:102F80009E08882399F253CF80E00E945E0781114A
:102F900068CF6ECF80E00E945E07811163CCA09164
:102FA0006D29B0916E291B96ED91FC911C9726E03E
:102FB000AE014F5F5F4F68E218968C9109956A8168
:102FC0009981762F692FEC809B81FE2CE92E0E8152
:102FD0009D81102F092F81114DCC072E000C880BDD
:102FE000990B0E94E71920E030E048EC52E40E947F
:102FF0003D196093AA2A7093AB2A8093AC2A9093D0
:10300000AD2AB701FF0C880B990B0E94E71920E04D
:1030100030E048EC52E40E943D196093AE2A709370
:10302000AF2A8093B02A9093B12AB801110F880B70
:10303000990B0E94E71920E030E048EC52E40E942E
:103040003D196093B22A7093B32A8093B42A909367
:10305000B52A10CC80E00E945E0781111ACCA091A5
:103060006D29B0916E291B96ED91FC911C9726E07D
:10307000AE014F5F5F4F6EE218968C9109956A81A1
:103080009981762F692FEC809B81FE2CE92E0E8191
:103090009D81102F092F811104CC072E000C880B65
:1030A000990B0E94E71920E030E048EC52E40E94BE
:1030B0003D196093B62A7093B72A8093B82A9093EB
:1030C000B92AB701FF0C880B990B0E94E71920E081
:1030D00030E048EC52E40E943D196093BA2A7093A4
:1030E000BB2A8093BC2A9093BD2AB801110F880B8C
:1030F000990B0E94E71920E030E048EC52E40E946E
:103100003D196093BE2A7093BF2A8093C02A909382
:10311000C12AC7CB8EE00E94C6038091622A81112A
:1031200002C00E942B098091A22A9091A32AA0910B
:10313000A42AB091A52A8093222A9093232AA093AF
:10314000242AB093252AF1CB2091582A3091592A6C
:1031500040915A2A50915B2A288B398B4A8B5B8B82
:10316000C301B2010E94381987FF9DCC88899989D3
:10317000AA89BB8990CC812C912C5401A6CC20E04B
:1031800030EC48EA54E4C701B6010E94971A1816B9
:103190000CF46ACD75CD5058BB27AA270E94E318BE
:1031A0000C945D1A0E944F1A38F00E94561A20F0B3
:1031B00039F49F3F19F426F40C944C1A0EF4E09560
:1031C000E7FB0C94461AE92F0E946E1A58F3BA17BF
:1031D000620773078407950720F079F4A6F50C942D
:1031E000901A0EF4E0950B2EBA2FA02D0B01B90109
:1031F00090010C01CA01A0011124FF27591B99F06D
:10320000593F50F4503E68F11A16F040A22F232F78
:10321000342F4427585FF3CF469537952795A795C8
:10322000F0405395C9F77EF41F16BA0B620B730B6F
:10323000840BBAF09150A1F0FF0FBB1F661F771FE0
:10324000881FC2F70EC0BA0F621F731F841F48F495
:10325000879577956795B795F7959E3F08F0B0CF1E
:103260009395880F08F09927EE0F97958795089505
:103270000E94221A08F481E008950E9451190C94CA
:103280005D1A0E94561A58F00E944F1A40F029F415
:103290005F3F29F00C94461A51110C94911A0C942A
:1032A0004C1A0E946E1A68F39923B1F3552391F3D7
:1032B000951B550BBB27AA2762177307840738F0A5
:1032C0009F5F5F4F220F331F441FAA1FA9F335D002
:1032D0000E2E3AF0E0E832D091505040E695001CB6
:1032E000CAF72BD0FE2F29D0660F771F881FBB1F70
:1032F000261737074807AB07B0E809F0BB0B802D4E
:10330000BF01FF2793585F4F3AF09E3F510578F079
:103310000C94461A0C94911A5F3FE4F3983ED4F350
:10332000869577956795B795F7959F5FC9F7880F4D
:10333000911D9695879597F90895E1E0660F771F9F
:10334000881FBB1F621773078407BA0720F0621B30
:10335000730B840BBA0BEE1F88F7E09508950E945B
:10336000B6196894B1110C94911A08950E94761AB6
:1033700088F09F5798F0B92F9927B751B0F0E1F036
:10338000660F771F881F991F1AF0BA95C9F714C0E6
:10339000B13091F00E94901AB1E008950C94901A07
:1033A000672F782F8827B85F39F0B93FCCF386951F
:1033B00077956795B395D9F73EF49095809570957C
:1033C00061957F4F8F4F9F4F0895E89409C097FBF9
:1033D0003EF490958095709561957F4F8F4F9F4FEC
:1033E0009923A9F0F92F96E9BB279395F695879530
:1033F00077956795B795F111F8CFFAF4BB0F11F4F3
:1034000060FF1BC06F5F7F4F8F4F9F4F16C0882399
:1034100011F096E911C0772321F09EE8872F762FCF
:1034200005C0662371F096E8862F70E060E02AF010
:103430009A95660F771F881FDAF7880F96958795FC
:1034400097F90895990F0008550FAA0BE0E8FEEFD1
:1034500016161706E807F907C0F012161306E40758
:10346000F50798F0621B730B840B950B39F40A2651
:1034700061F0232B242B252B21F408950A2609F42F
:10348000A140A6958FEF811D811D089597F99F6733
:1034900080E870E060E008959FEF80EC08950024DC
:1034A0000A941616170618060906089500240A94A9
:1034B00012161306140605060895092E0394000C2F
:1034C00011F4882352F0BB0F40F4BF2B11F460FFBE
:1034D00004C06F5F7F4F8F4F9F4F089557FD9058E7
:1034E000440F551F59F05F3F71F04795880F97FBC8
:1034F000991F61F09F3F79F0879508951216130682
:103500001406551FF2CF4695F1DF08C016161706B0
:103510001806991FF1CF86957105610508940895E5
:10352000E894BB2766277727CB0197F908950E9477
:10353000221A08F48FEF08950E94AF1A0C945D1AB6
:103540000E944F1A38F00E94561A20F0952311F06D
:103550000C94461A0C944C1A11240C94911A0E9443
:103560006E1A70F3959FC1F3950F50E0551F629F3F
:10357000F001729FBB27F00DB11D639FAA27F00DCC
:10358000B11DAA1F649F6627B00DA11D661F829FF3
:103590002227B00DA11D621F739FB00DA11D621FD8
:1035A000839FA00D611D221F749F3327A00D611DF5
:1035B000231F849F600D211D822F762F6A2F1124D7
:1035C0009F5750409AF0F1F088234AF0EE0FFF1F0A
:1035D000BB1F661F771F881F91505040A9F79E3F61
:1035E000510580F00C94461A0C94911A5F3FE4F355
:1035F000983ED4F3869577956795B795F795E795B7
:103600009F5FC1F7FE2B880F911D9695879597F9BF
:1036100008950E94221A880B990B0895991B79E04E
:1036200004C0991F961708F0961B881F7A95C9F752
:1036300080950895AA1BBB1B51E107C0AA1FBB1FA1
:10364000A617B70710F0A61BB70B881F991F5A952E
:10365000A9F780959095BC01CD010895A1E21A2E9D
:10366000AA1BBB1BFD010DC0AA1FBB1FEE1FFF1F26
:10367000A217B307E407F50720F0A21BB30BE40B76
:10368000F50B661F771F881F991F1A9469F76095BD
:103690007095809590959B01AC01BD01CF01089577
:1036A000052E97FB1EF400940E94671B57FD07D060
:1036B0000E942E1B07FC03D04EF40C94671B509500
:1036C0004095309521953F4F4F4F5F4F089590950E
:1036D0008095709561957F4F8F4F9F4F08950E9401
:1036E000881BA59F900DB49F900DA49F800D911DE8
:1036F00011240895B7FF0C946F1B0E946F1B821B4F
:10370000930B0895EE0FFF1F0590F491E02D09949F
:10371000A29FB001B39FC001A39F700D811D112412
:10372000911DB29F700D811D1124911D0895F89473
:02373000FFCFC9
:10373200000000030001020000010100000000007F
:103742000000000000000000000000000000000077
:10375200000000000000000000050400050602044D
:103762000103000100010200010203040502030338
:10377200050406050406070307000102020300010F
:103782000706020200050201050004010104040407
:10379200030303030303000002000003010100000E
:1037A2000102020202050505050305201001204061
:1037B200041002080102010204010204081020049C
:1037C20008082010402010408008800102040408EC
:1037D2000102804000000000160289027B0167029C
:1037E200AC018A019E01B00A4E03B801B602000084
:1037F20000005D0638065B070E0631061E060F0640
:103802002E07E906DC06D8069F0680067806AE0675
:10381200A606E705E2056E616E00696E66006F76C8
:1038220066002E0020526F6C6C3A2000206F757477
:103832007075743A200020736574506F696E743A23
:0538420020000D0A004A
:063847000024F400010161
:0400000300000200F7
:00000001FF
