:100000000C9451010C9482010C9482010C94820195
:100010000C9482010C9482010C9482010C94820154
:100020000C9482010C9482010C9482010C94820144
:100030000C9482010C9482010C9482010C94820134
:100040000C9482010C94D70C0C9482010C948201C4
:100050000C9482010C9482010C9482010C94030C88
:100060000C9482010C94CD0B0C94A30B0C94820184
:100070000C9482010C9482010C9482010C948201F4
:100080000C94A90C0C9482010C9482010C948201B2
:100090000C9482010C9482010C9482010C94050D45
:1000A0000C9482010C9482010C947B0C0C948201C0
:1000B0000C9482010C9482010C9482010C944D0CDE
:1000C0000C9482010C9482010C9482010C948201A4
:1000D0000C9482010C9482010C9482010C94820194
:1000E0000C948201084AD73B3BCE016E84BCBFFD15
:1000F000C12F3D6C74319ABD56833DDA3D00C77FF8
:1001000011BED9E4BB4C3E916BAAAABE0000008090
:100110003F000C9405030C940D030C94D6010C9431
:1001200032030C94B3010C941C020C9410030C9435
:1001300001030C94F8060C942E030C9486010C9485
:1001400024030C9422070C9409030C94E4010C94EE
:1001500069020C94C2010C9428030C94290E0C948F
:1001600020030C941B070C94EA020C947E070C9459
:1001700036030C941A030C94F9060C943C030C946B
:1001800040030C9408070C9484010C9416030C94FF
:1001900085010C944F070C94EF020000210024000D
:1001A00027002A002D003000330001010000040167
:1001B00007010A0100002200250028002B002E0064
:1001C0003100340002010000050108010B010505A2
:1001D0000505070508080808020202020A0A0808BD
:1001E00004040404010101010101010103030303EB
:1001F00003030303040707070C0C0C0C0C0C0C0C7A
:100200000202020206060606060606060B0B0B0B8A
:100210000B0B0B0B010210202008081020401020AF
:1002200040800201020108040201010204081020BA
:1002300040808040201008040201800402018040B8
:100240002010080402010804020101020408102021
:100250004080010204081020408000000A0B0209BF
:100260000C0D0E0807030401000000000000000050
:10027000000000000000000000000000000000007E
:10028000000000000000121110000000000000003B
:10029000000000000000000000000000000000005E
:1002A000290E11241FBECFEFD1E2DEBFCDBF00E08B
:1002B0000CBF12E0A0E0B2E0E0E2FDE200E00BBF24
:1002C00002C007900D92AA36B107D9F724E0AAE63A
:1002D000B2E001C01D92AB3DB207E1F711E0C1E50C
:1002E000D1E000E006C021970109802FFE010E94A5
:1002F0008616C035D10780E00807A9F70E94F40EE2
:100300000C948E160C94000008950895AF92BF923D
:10031000CF92DF92EF92FF920F931F93CF93DF93D1
:100320006C017B018B01040F151FEB015E01AE1800
:10033000BF08C017D10759F06991D601ED91FC9122
:100340000190F081E02DC6011995892B79F7C5013F
:10035000DF91CF911F910F91FF90EF90DF90CF90A1
:10036000BF90AF900895FC01538D448D252F30E050
:10037000842F90E0821B930B541710F0CF960895B2
:1003800001970895FC01918D828D981761F0A28DDF
:10039000AE0FBF2FB11D5D968C91928D9F5F9F73A5
:1003A000928F90E008958FEF9FEF0895FC01918D5B
:1003B000828D981731F0828DE80FF11D858D90E0C8
:1003C00008958FEF9FEF0895FC01918D228D892F65
:1003D00090E0805C9F4F821B91098F73992708954D
:1003E00081E493E00E94E40121E0892B09F420E0FC
:1003F000822F0895FC01A48DA80FB92FB11DA35A17
:10040000BF4F2C91848D90E001968F739927848F34
:10041000A689B7892C93A089B1898C918370806457
:100420008C93938D848D981306C00288F389E02DF8
:1004300080818F7D80830895EF92FF920F931F93A9
:10044000CF93DF93EC0181E0888F9B8D8C8D981387
:100450001AC0E889F989808185FF15C09FB7F89493
:10046000EE89FF896083E889F989808183708064DF
:1004700080839FBF81E090E0DF91CF911F910F912A
:10048000FF90EF900895F62E0B8D10E00F5F1F4F39
:100490000F731127E02E8C8D8E110CC00FB607FC48
:1004A000FACFE889F989808185FFF5CFCE010E94D6
:1004B000FA01F1CFEB8DEC0FFD2FF11DE35AFF4F49
:1004C000F0829FB7F8940B8FEA89FB898081806264
:1004D000CFCFCF93DF93EC01888D8823B9F0AA8921
:1004E000BB89E889F9898C9185FD03C0808186FDEF
:1004F0000DC00FB607FCF7CF8C9185FFF2CF80813E
:1005000085FFEDCFCE010E94FA01E9CFDF91CF91B7
:10051000089580E090E0892B29F00E94F00181117C
:100520000E94000080E090E0892B49F080E090E09C
:10053000892B29F00E94000081110E94000080E0B8
:1005400090E0892B49F080E090E0892B29F00E940F
:10055000000081110E94000080E090E0892B49F0AA
:1005600080E090E0892B29F00E94000081110C941A
:1005700000000895282F30E0F901E65AFD4F9491CC
:10058000F901EC5EFD4F449122533E4FF901249155
:10059000222309F435C0992311F191509231F8F4D6
:1005A000E92FF0E08827E852FD4F8F4F0C94861614
:1005B00009030D03EA0201030503EF02100316030A
:1005C0001A032003240328032E033203EF02360309
:1005D0003C034003809180008F7780938000E22F5E
:1005E000F0E0EE0FFF1FEC54FE4FA591B4918FB7D2
:1005F000F894EC91611148C040954E234C938FBF05
:100600000895809180008F7DE8CF80918000877F62
:10061000E4CF84B58F7784BDE2CF84B58F7DFBCFE7
:100620008091B0008F778093B000D9CF8091B000D7
:100630008F7DF9CF809190008F7780939000CFCFFE
:10064000809190008F7DF9CF80919000877FF5CFCA
:100650008091A0008F778093A000C1CF8091A000EF
:100660008F7DF9CF8091A000877FF5CF8091200109
:100670008F7780932001B3CF809120018F7DF9CFB8
:1006800080912001877FF5CF4E2BB8CF3FB7F894EC
:100690008091B3029091B402A091B502B091B602DC
:1006A00026B5A89B05C02F3F19F00196A11DB11DCD
:1006B0003FBFBA2FA92F982F8827BC01CD01620F09
:1006C000711D811D911D42E0660F771F881F991FC4
:1006D0004A95D1F708958F929F92AF92BF92CF9291
:1006E000DF92EF92FF924B015C010E9446036B0187
:1006F0007C010E9446036C197D098E099F09683EA2
:10070000734081059105A8F321E0821A9108A108A0
:10071000B10888EEC80E83E0D81EE11CF11C8114DC
:100720009104A104B10429F7FF90EF90DF90CF90DE
:10073000BF90AF909F908F900895CF92DF92EF92ED
:10074000FF92CF93DF93EC01603282E07807CCF523
:10075000653B710514F064EB70E0898128E830E0B6
:10076000281B310987FD3395220F331F220F331FBA
:100770006901330FEE08FF088A8128E532E0281B63
:10078000310987FD3395220F331F220F331F032EAC
:10079000000C440B550B2C193D094E095F09DB0178
:1007A00077FF02C0B0E0A0E00E94FE1224EB30E030
:1007B00040E050E00E94D412C20ED31EE41EF51E8B
:1007C000B601E881E03370F5298188E890E0821B6A
:1007D000910927FD9395880F991F880F991F681716
:1007E00079077CF02A8188E592E0821B910927FD38
:1007F0009395880F991F880F991F681779070CF434
:10080000CB010297880F991F4FB7F8942E2F30E035
:10081000F901EE0FFF1FE20FF31FE252FC4F92832C
:1008200081834FBFDF91CF91FF90EF90DF90CF900A
:100830000895CF93DF93DC018C91803308F06DC075
:10084000CB01FB01EC5EFD4F249182539E4FFC01D6
:100850008491882399F090E0880F991FFC01E65657
:10086000FE4FC591D491FC01EC54FE4F85919491BB
:100870008FB7F894E881E22BE8838FBF8C91282F03
:1008800030E0F901EE0FFF1FE20FF31FE252FC4FC1
:10089000962F9F736081607C692B608311961C92F8
:1008A000119712961C9212972CE0622F0E947A16D2
:1008B000829FB001112430E020E0AB01420F531FB2
:1008C000FA01EE0FFF1FE40FF51FE252FC4F90817B
:1008D00096FD16C02F5F3F4F2C30310571F78130E8
:1008E00001F51092800082E08093810010928500D3
:1008F00010928400B19A80916F00826080936F00A3
:10090000EC918E2F90E0FC01EE0FFF1FE80FF91F16
:10091000E252FC4F8081806480838C91DF91CF9183
:100920000895823061F410929000809391001092AB
:1009300095001092940088BB80937100E1CF8330C2
:1009400069F41092A00082E08093A1001092A500AB
:100950001092A40089BB80937200D2CF8111D0CFB6
:100960001092200182E080932101109225011092C3
:1009700024018ABB80937300C3CFAF92BF92CF9202
:10098000DF92EF92FF920F931F93CF93DF936B0150
:100990007A01EC01C255DD4F28813CE0389F80018F
:1009A000399F100D1124A0906E04B12C27FF1FC099
:1009B000FB011182108288818F5F88838881980172
:1009C000280F311D87FD3A95F6012A153B051CF4C9
:1009D00088818C30C4F180819181049680349C4957
:1009E00008F473C0F60180819181049670C08881FB
:1009F0009801280F311D87FD3A952A153B05DCF635
:100A00008881A801480F511D87FD5A95FA01EE0F04
:100A1000FF1FE40FF51FE252FC4F808186FFCBCF12
:100A20008881F801E80FF11D87FDFA95CF01EE0FDF
:100A3000FF1FE80FF91FE252FC4F808160E08F73C7
:100A40000E94BA02B8CF808191812881A801420F0B
:100A5000511D27FD5A959A01FA01EE0FFF1FE20F73
:100A6000F31FE252FC4F21813281820F931FF70165
:100A70009183808388819801280F311D87FD3A95E5
:100A8000F901EE0FFF1FE20FF31FE252FC4F8081CE
:100A900086FF22C08881080F111D87FD1A95F80175
:100AA000EE0FFF1FE00FF11FE252FC4F808161E06B
:100AB0008F73DF91CF911F910F91FF90EF90DF9097
:100AC000CF90BF90AF900C94BA0280E49CE9F701FC
:100AD000918380838FEF8883DF91CF911F910F9156
:100AE000FF90EF90DF90CF90BF90AF90089520914E
:100AF0008B02260F3327331F21323105ECF420916E
:100B00001703FC0190E080E0243069F082E0089552
:100B1000A0918B022191AC0145595D4FA40FB52FD7
:100B2000B11D2C930196861798F380918B02680F64
:100B300060938B0280E0089581E00895109217037E
:100B400081E0809316031092F10261E084E10E943B
:100B5000BA0261E085E10E94BA02E9EBF0E080812F
:100B60008E7F808380818D7F808388E48093B8002E
:100B700085E48093BC000895CF93DF9391E0909338
:100B80006A028823B9F0C091B800D091BA00809170
:100B9000BC008A7B8093BC0060E084E10E94BA02C2
:100BA00060E085E10E94BA020E949E05D093BA00DF
:100BB000C093B800DF91CF9108958F929F92AF922A
:100BC000BF92CF92DF92EF92FF920F931F93CF933A
:100BD000DF93D0914003D13208F0D7C0182FC091D5
:100BE0003F030E9446036B017C0180911703811132
:100BF0006BC082E080931703109316038FEF8093EE
:100C0000150310921403D0931303AFE1B3E0E3EFA5
:100C1000F2E080E0D81391C01092F2028091F202CB
:100C2000CC0FC82BC093F2028091F102813009F001
:100C300088C01092F1020E9446036B017C018091F2
:100C4000F2028093BB008091190390911A03A09146
:100C50001B03B0911C03892B8A2B8B2BA1F00E94C4
:100C600046030091190310911A0320911B03309140
:100C70001C036C197D098E099F09061717072807A1
:100C8000390708F442C08091BC0083FDD8CF85ECC1
:100C90008093BC000E9446036B017C018091170386
:100CA000823009F450C0809115038F3F09F46FC062
:100CB00080911503803209F46CC080911503803354
:100CC00009F469C084E026C08091190390911A0349
:100CD000A0911B03B0911C03892B8A2B8B2B09F449
:100CE00084CF0E9446038090190390901A03A0902D
:100CF0001B03B0901C036C197D098E099F09861691
:100D00009706A806B90608F070CF809118030E94D4
:100D1000BC0585E010921E031092400310921D0343
:100D2000DF91CF911F910F91FF90EF90DF90CF90C7
:100D3000BF90AF909F908F9008959D9191938F5FFA
:100D400069CF85EEA5CF8091190390911A03A091E8
:100D50001B03B0911C03892B8A2B8B2B09F49ECF8C
:100D60000E9446030091190310911A0320911B035E
:100D700030911C036C197D098E099F09061717070E
:100D80002807390708F08ACFC0CF81E0C3CF80E0C1
:100D9000C1CF82E0BFCF83E0BDCF1F93CF93DF935E
:100DA000162FC1E8D4E0A881B98191E090931D038A
:100DB00098E690933F0310921E0310924003ED912A
:100DC000FC9111970190F081E02D682FCD011995CC
:100DD00088819981DC01ED91FC910190F081E02DF9
:100DE000612F199581E0DF91CF911F910C94DD0562
:100DF0000895E091D0028091CF02E81730F4F0E03E
:100E0000EF52FD4F808190E008958FEF9FEF08959E
:100E10009091D0028091CF022FEF3FEF981748F4C6
:100E2000E92FF0E0EF52FD4F208130E09F5F90937B
:100E3000D002C90108958091CF029091D002891B00
:100E4000990B0895CF92DF92EF92FF920F931F9329
:100E5000CF93DF937C01CB018A0120911D032223D4
:100E600089F0EB016B01C40ED51ECC15DD0569F0D0
:100E70006991D701ED91FC910190F081E02DC701BE
:100E80001995F3CF642F0E947705C801DF91CF91A8
:100E90001F910F91FF90EF90DF90CF900895CF9327
:100EA000DF931F92CDB7DEB7698320911D03222304
:100EB000F9F020914003203258F021E030E0FC01AD
:100EC0003383228390E080E00F90DF91CF910895EB
:100ED00080911E03E82FF0E0E15EFC4F9981908342
:100EE0008F5F80931E038093400381E090E0ECCFFE
:100EF00061E0CE0101960E947705F7CF90E080E097
:100F00000895FC0101900020E9F73197AF01481BDB
:100F1000590BBC0181E493E00C9486018F929F925F
:100F2000AF92BF920F931F93CF93DF93CDB7DEB7EE
:100F3000A1970FB6F894DEBF0FBECDBF19A2423005
:100F400008F44AE08E010F5D1F4F842E912CB12CC6
:100F5000A12CA50194010E940613E62FB901CA0134
:100F6000EA30F4F4E05DD801EE938D01232B242BBD
:100F7000252B79F790E080E0109719F0CD010E94C1
:100F80008107A1960FB6F894DEBF0FBECDBFDF91EB
:100F9000CF911F910F91BF90AF909F908F90089528
:100FA000E95CE1CF8F929F92AF92BF92CF92DF9296
:100FB000EF92FF920F931F93CF93DF93CDB7DEB7DE
:100FC0002E970FB6F894DEBF0FBECDBF809181047F
:100FD0009091820421E020931D0328E620933F0393
:100FE00010921E0310924003DC01ED91FC910190E0
:100FF000F081E02D6BE3199580E00E94DD050E94F1
:1010000046034B015C0180911703811165C081E0AB
:1010100080931703809316039FEF9093150310920C
:1010200014039DE0909313038093F2028091F202E7
:10103000806D8093F2028091F102813009F091C1BC
:101040001092F1020E9446034B015C018091F20272
:101050008093BB008091190390911A03A0911B0308
:10106000B0911C03892B8A2B8B2BA1F00E94460385
:101070000091190310911A0320911B0330911C0356
:10108000681979098A099B0906171707280739077C
:1010900008F443C08091BC0083FDD8CF85EC8093D9
:1010A000BC000E9446034B015C0180911703813014
:1010B00009F459C1809114038E3008F076C18091F3
:1010C0001403A3EFB2E0E1EDF2E090E0981751F1E4
:1010D0002D9121939F5FFACF8091190390911A036C
:1010E000A0911B03B0911C03892B8A2B8B2B09F435
:1010F0008ACF0E9446030091190310911A03209190
:101100001B0330911C03681979098A099B0906178A
:1011100017072807390708F076CF809118030E9437
:10112000BC0580E01092D0028093CF028E010F5F49
:101130001F4F6E01BFE0CB0ED11C809181049091B6
:101140008204DC01ED91FC910284F385E02D199578
:10115000B82E8091810490918204DC01ED91FC9184
:101160000284F385E02D1995E12C8E299B29F80145
:10117000819391938F01CE16DF06F9F6C090870414
:10118000D0908804E0908904F0908A0469817A8183
:10119000072E000C880B990B0E94C514A70196011D
:1011A0000E941B1420919704309198044091990457
:1011B00050919A040E9437136093A7047093A80477
:1011C0008093A9049093AA046B817C81072E000C64
:1011D000880B990B0E94C514A70196010E941B144D
:1011E00020919B0430919C0440919D0450919E0459
:1011F0000E9437136093AB047093AC048093AD04EA
:101200009093AE046D817E81072E000C880B990BA4
:101210000E94C514A70196010E941B1420919F04EF
:101220003091A0044091A1045091A2040E94371370
:101230006093AF047093B0048093B1049093B204B0
:101240006F817885072E000C880B990B0E94C514BE
:1012500020E030EF41E456E40E94381320E030E013
:101260004AEA53E40E941B146093A3047093A404FD
:101270008093A5049093A604C0908304D090840426
:10128000E0908504F090860469857A85072E000C2D
:10129000880B990B0E94C514A70196010E941B148C
:1012A00020918B0430918C0440918D0450918E04D8
:1012B0000E9437136093B3047093B4048093B50411
:1012C0009093B6046B857C85072E000C880B990BD8
:1012D0000E94C514A70196010E941B1420918F043F
:1012E0003091900440919104509192040E943713E0
:1012F0006093B7047093B8048093B9049093BA04D0
:101300006D857E85072E000C880B990B0E94C514F5
:10131000A70196010E941B1420919304309194041C
:1013200040919504509196040E9437136093BB043A
:101330007093BC048093BD049093BE042E960FB6A8
:10134000F894DEBF0FBECDBFDF91CF911F910F91FB
:10135000FF90EF90DF90CF90BF90AF909F908F90D5
:10136000089585EE9CCE8091190390911A03A09167
:101370001B03B0911C03892B8A2B8B2B09F495CE70
:101380000E9446030091190310911A0320911B0338
:1013900030911C03681979098A099B0906171707F8
:1013A0002807390708F081CEB8CE8EE08ACE4F925A
:1013B0005F926F927F928F929F92AF92BF92CF92E5
:1013C000DF92EF92FF920F931F93CF93DF9300D0A2
:1013D00000D000D01F92CDB7DEB70E94D207C090D8
:1013E000AF04D090B004E090B104F090B204A70133
:1013F0009601C701B6010E94A91569837A838B8380
:101400009C838090A7049090A804A090A904B09019
:10141000AA04A5019401C501B4010E94A91529815E
:101420003A814B815C810E9438130E941C166D83A7
:101430007E838F8398874090AB045090AC0460907B
:10144000AD047090AE0401E010E020E030E0A901AE
:10145000C701B6010E949C1587FF02C010E000E0A2
:1014600021E030E03A87298720E030E0A901C70178
:10147000B6010E94161487FD02C01A861986B801AB
:1014800049855A85641B750B072E000C880B990B38
:101490000E94C5142D813E814F8158850E94A91557
:1014A0009B01AC01C301B2010E94B71321EE3EE2E1
:1014B00045E652E40E94A9156093BF047093C004EE
:1014C0008093C1049093C204A3019201C301B201AD
:1014D0000E94A91529813A814B815C810E943813B1
:1014E0000E941C169B01AC01C501B4010E94B713F8
:1014F000905821EE3EE245E652E40E94A915609321
:10150000C3047093C4048093C5049093C6048FB73A
:10151000F8948090CB029090CC02A090CD02B09035
:10152000CE028FBF8091D3049091D404A091D504B2
:10153000B091D604A5019401281B390B4A0B5B0B13
:10154000CA01B9010E94C3142FE632E143E85AE30D
:101550000E94A9156B017C018092D3049092D4045F
:10156000A092D504B092D6048090D7049090D8046D
:10157000A090D904B090DA04A501940160E070E075
:1015800080E89FE30E9437132B013C012091B304B4
:101590003091B4044091B5045091B604C701B6012E
:1015A0000E94A9152091C7043091C8044091C90434
:1015B0005091CA040E943813A50194010E94A915F4
:1015C00069837A838B839C832091BF043091C0040C
:1015D0004091C1045091C204C301B2010E94A915F7
:1015E0009B01AC0169817A818B819C810E943813B7
:1015F0006093C7047093C8048093C9049093CA048D
:101600002091B7043091B8044091B9045091BA04C4
:10161000C701B6010E94A9152091CB043091CC04DA
:101620004091CD045091CE040E943813A50194013D
:101630000E94A9154B015C012091C3043091C404A0
:101640004091C5045091C604C301B2010E94A9157E
:101650009B01AC01C501B4010E9438136093CB0417
:101660007093CC048093CD049093CE042091BB045E
:101670003091BC044091BD045091BE04C701B60135
:101680000E94A9152091CF043091D0044091D1043B
:101690005091D2040E9438136093CF047093D00409
:1016A0008093D1049093D2042A960FB6F894DEBFAB
:1016B0000FBECDBFDF91CF911F910F91FF90EF90A3
:1016C000DF90CF90BF90AF909F908F907F906F9062
:1016D0005F904F90089585ED8093BC008091190331
:1016E00090911A03A0911B03B0911C030796A11DB2
:1016F000B11D23E0B695A795979587952A95D1F7C3
:101700002091BC0024FD03C010921703089540915E
:10171000190350911A0360911B0370911C03452B10
:10172000462B472B69F30097A105B10541F025E34E
:101730002A95F1F700000197A109B109E1CF809145
:1017400018030C94BC051F920F920FB60F92112430
:101750000BB60F922F933F934F935F936F937F93AB
:101760008F939F93AF93BF93EF93FF9381E493E0A5
:101770000E94FA01FF91EF91BF91AF919F918F91DC
:101780007F916F915F914F913F912F910F900BBE81
:101790000F900FBE0F901F9018951F920F920FB6CB
:1017A0000F9211240BB60F922F938F939F93EF9369
:1017B000FF93E0915103F09152038081E091570330
:1017C000F091580382FD1DC0908180915A038F5F74
:1017D0008F7320915B03821741F0E0915A03F0E090
:1017E000EF5BFC4F958F80935A03FF91EF919F9190
:1017F0008F912F910F900BBE0F900FBE0F901F90E7
:1018000018958081F2CF1F920F920FB60F9211247C
:101810002F933F938F939F93AF93BF938091CB026E
:101820009091CC02A091CD02B091CE023091B20243
:1018300023E0230F2D3758F50196A11DB11D2093EC
:10184000B2028093CB029093CC02A093CD02B093CE
:10185000CE028091B3029091B402A091B502B091F2
:10186000B6020196A11DB11D8093B3029093B402FC
:10187000A093B502B093B602BF91AF919F918F91A3
:101880003F912F910F900FBE0F901F90189526E853
:10189000230F0296A11DB11DD2CF1F920F920FB63A
:1018A0000F9211240BB60F922F933F934F935F9398
:1018B0006F937F938F939F93AF93BF93EF93FF9318
:1018C00048E251E064E271E090E080E00E94BD04F3
:1018D000FF91EF91BF91AF919F918F917F916F9108
:1018E0005F914F913F912F910F900BBE0F900FBEC4
:1018F0000F901F9018951F920F920FB60F92112400
:101900000BB60F922F933F934F935F936F937F93F9
:101910008F939F93AF93BF93EF93FF9348EA50E069
:1019200064EA70E083E090E00E94BD04FF91EF91D3
:10193000BF91AF919F918F917F916F915F914F91E7
:101940003F912F910F900BBE0F900FBE0F901F90E5
:1019500018951F920F920FB60F9211240BB60F928B
:101960002F933F934F935F936F937F938F939F93A7
:10197000AF93BF93EF93FF9348E950E064E970E0C1
:1019800082E090E00E94BD04FF91EF91BF91AF9182
:101990009F918F917F916F915F914F913F912F9187
:1019A0000F900BBE0F900FBE0F901F9018951F92B7
:1019B0000F920FB60F9211240BB60F922F933F93F5
:1019C0004F935F936F937F938F939F93AF93BF9347
:1019D000EF93FF9348E850E064E870E081E090E026
:1019E0000E94BD04FF91EF91BF91AF919F918F91A4
:1019F0007F916F915F914F913F912F910F900BBE0F
:101A00000F900FBE0F901F9018951F920F920FB658
:101A10000F9211240BB60F922F933F934F935F9326
:101A20006F937F938F939F93AF93BF93EF93FF93A6
:101A30008091B900887F803609F44DC008F040C01D
:101A4000883209F4A9C028F5803109F49DC0C8F492
:101A5000882309F4FBC0883009F496C0FF91EF9108
:101A6000BF91AF919F918F917F916F915F914F91B6
:101A70003F912F910F900BBE0F900FBE0F901F90B4
:101A80001895883109F488C0803241F78093150396
:101A900014C0803409F49DC040F48033B9F3883316
:101AA000E9F68093150385ECB0C0803509F485C054
:101AB000883509F496C0883489F60E946B0BCECF26
:101AC000883909F48CC038F5883729F050F4883605
:101AD00011F0803719F683E0809317031092AD025E
:101AE00057C0883809F47BC0803919F0803809F074
:101AF000B5CF8091AD02803208F071C0E091AD02A7
:101B000081E08E0F8093AD028091BB00F0E0E3573F
:101B1000FD4F80833DC0803B39F0E0F4803A09F40A
:101B200079C0883A09F09ACF84E080931703109225
:101B30008C0210928B02E091B902F091BA021995D1
:101B400080918B0281110FC081E080938B021092F3
:101B50006B0209C0803C09F4A6CF883C09F4A3CFEE
:101B6000883B09F07BCFE0918C0281E08E0F80935F
:101B70008C02F0E0E559FD4F80818093BB0090918D
:101B80008C0280918B0229C08091F2028093BB006D
:101B900085EC8093BC0062CF909114038091130375
:101BA000981758F5E091140381E08E0F8093140389
:101BB000F0E0ED50FD4F8081E9CFE091140381E02A
:101BC0008E0F809314038091BB00F0E0ED50FD4F29
:101BD000808390911403809113039817C8F285E8CD
:101BE000D8CFE091140381E08E0F8093140380918D
:101BF000BB00F0E0ED50FD4F808380911603811112
:101C00005CCF81E08093F10284EA8093BC00109263
:101C1000170324CF85EC8093BC00109217038091AA
:101C2000AD02803230F4E091AD02F0E0E357FD4FB9
:101C300010826091AD0270E0E091B702F091B802BD
:101C40008DE892E019951092AD0208CF109215031D
:101C500034CF109244031092430388EE93E0A0E047
:101C6000B0E08093450390934603A0934703B0935D
:101C7000480324E032E0309342032093410325ECF3
:101C800030E030934E0320934D0324EC30E030934A
:101C9000500320934F0320EC30E030935203209305
:101CA000510321EC30E0309354032093530322EC92
:101CB00030E0309356032093550326EC30E0309308
:101CC00058032093570310925A0310925B0310920B
:101CD0005C0310925D031092780410927704809355
:101CE000790490937A04A0937B04B0937C0486E1FA
:101CF00092E0909376048093750485E794E0909346
:101D000082048093810488E491EEAAE7BFE3809384
:101D1000D7049093D804A093D904B093DA04109216
:101D20008B0410928C0410928D0410928E041092E9
:101D30008F041092900410929104109292041092C9
:101D400093041092940410929504109296041092A9
:101D50009704109298041092990410929A04109289
:101D60009B0410929C0410929D0410929E04109269
:101D70009F041092A0041092A1041092A2048091DA
:101D80006E04803348F591E0980F90936E04809331
:101D9000720490E0FC01EE0FFF1FE80FF91FE25202
:101DA000FC4F88EB9BE09283818380916E048033AB
:101DB000B8F491E0980F90936E0480936F0490E0D4
:101DC000FC01EE0FFF1FE80FF91FE252FC4F88EBFA
:101DD0009BE09283818308958FEF80937204E5CF17
:101DE0008FEF80936F040895CF93DF93CDB7DEB765
:101DF0002E970FB6F894DEBF0FBECDBF789484B592
:101E0000826084BD84B5816084BD85B5826085BDF6
:101E100085B5816085BD80916E00816080936E0084
:101E20001092810080918100826080938100809176
:101E30008100816080938100809180008160809327
:101E400080008091B10084608093B1008091B000E7
:101E500081608093B00080919100826080939100B6
:101E600080919100816080939100809190008160C9
:101E7000809390008091A10082608093A100809166
:101E8000A10081608093A1008091A0008160809377
:101E9000A000809121018260809321018091210125
:101EA00081608093210180912001816080932001D5
:101EB00080917A00846080937A0080917A008260B9
:101EC00080937A0080917A00816080937A0080917B
:101ED0007A00806880937A001092C100E0915103EB
:101EE000F091520382E08083E0914D03F0914E0324
:101EF0001082E0914F03F091500380E180831092B3
:101F00005903E0915503F091560386E08083E091F8
:101F10005303F0915403808180618083E0915303E7
:101F2000F0915403808188608083E0915303F091A5
:101F30005403808180688083E0915303F0915403BF
:101F400080818F7D80831092D0021092CF021092F8
:101F50001E03109240030E949E0584E891E0909336
:101F6000BA028093B90285E891E09093B802809319
:101F7000B70260E089E10E94CD0660E08AE10E943C
:101F8000CD0680E090E0A3E8B2E4809383049093D0
:101F90008404A0938504B093860468E08BE10E94DA
:101FA000CD0680E090E0A0E8B6E4809387049093AB
:101FB0008804A0938904B0938A0460E08CE10E94B5
:101FC000CD0661E08BE60E94CD0689830E94D70989
:101FD0008091BF049091C004A091C104B091C2044B
:101FE0008093C7049093C804A093C904B093CA0413
:101FF0008091C3049091C404A091C504B091C6041B
:102000008093CB049093CC04A093CD04B093CE04E2
:102010002FB7F8948091CB029091CC02A091CD0281
:10202000B091CE022FBF8093D3049093D404A09399
:10203000D504B093D60429812111FDCF68EE73E059
:1020400080E090E00E946B0310928B0410928C044D
:1020500010928D0410928E0410928F0410929004AE
:10206000109291041092920410929304109294048E
:10207000109295041092960410929704109298046E
:102080001092990410929A0410929B0410929C044E
:1020900010929D0410929E0410929F041092A0042E
:1020A0001092A1041092A20484EF91E09E878D8784
:1020B00019861A861B861C8619821A821B821C822C
:1020C0001D821E821F821886C12CD12C76014601EA
:1020D0005701260137010E94D2072091A7043091B1
:1020E000A8044091A9045091AA04C301B2010E941E
:1020F00038132B013C012091AB043091AC0440918A
:10210000AD045091AE04C501B4010E9438134B01D7
:102110005C0120E030E040E85FE36091AF04709143
:10212000B0048091B1049091B2040E9437139B01D6
:10213000AC01C701B6010E9438136B017C012091EC
:10214000B3043091B4044091B5045091B6046D814C
:102150007E818F8198850E9438136D837E838F8363
:1021600098872091B7043091B8044091B9045091F8
:10217000BA0469817A818B819C810E9438136983BA
:102180007A838B839C832091BB043091BC04409163
:10219000BD045091BE0469857A858B859C850E941B
:1021A000381369877A878B879C8761E070E080E0CD
:1021B00090E00E946B038D859E8501979E878D8799
:1021C000892B09F088CF20E030E04AEF53E4C301C7
:1021D000B2010E941B14609397047093980480933B
:1021E000990490939A0420E030E04AEF53E4C5014B
:1021F000B4010E941B1460939B0470939C04809311
:102200009D0490939E0420E030E04AEF53E4C70120
:10221000B6010E941B1460939F047093A0048093E6
:10222000A1049093A20420E030E04AEF53E46D81D2
:102230007E818F8198850E941B1460938B0470931C
:102240008C0480938D0490938E0420E030E04AEF5C
:1022500053E469817A818B819C810E941B14609375
:102260008F0470939004809391049093920420E0E3
:1022700030E04AEF53E469857A858B859C850E941E
:102280001B1460939304709394048093950490932B
:10229000960484E292E00E9481078EE392E00E941D
:1022A000810766E070E082E794E00E94190465E02F
:1022B00070E08FE694E00E94190461E070E080E035
:1022C00090E00E946B0368E270E082E794E00E9475
:1022D0009D0368E270E08FE694E00E949D0360E752
:1022E00077E180E090E00E946B0381E492E00E943D
:1022F00081078EE392E00E9481078CE3882E912C67
:10230000A12CB12C0E94D7092FB7F8946091CB0271
:102310007091CC028091CD029091CE022FBFC090DF
:10232000C702D090C802E090C902F090CA026C19AE
:102330007D098E099F090E94C3142DEC3CEC4CECE6
:102340005DE30E949C1518160CF099C08091C7049B
:102350009091C804A091C904B091CA048093C302AB
:102360009093C402A093C502B093C60286E592E0A2
:102370000E948107C090C302D090C402E090C502C1
:10238000F090C602A7019601C701B6010E9460162F
:10239000882309F477C08EE592E00E94810760915E
:1023A000C3027091C4028091C5029091C6020E943E
:1023B0008D146B017C012EE1C20ED11CE11CF11CBD
:1023C000A1EFBFEFA70196010E940113A50194019F
:1023D0000E94D412CA01B901695C7F4F8F4F9F4F91
:1023E0000E94C5142B013C014092BF025092C002D2
:1023F0006092C1027092C202AFE0B0E0A701960104
:102400000E94F312A50194010E94D412CA01B901DD
:10241000685D7F4F8F4F9F4F0E94C5146B017C01F9
:10242000C092BB02D092BC02E092BD02F092BE020A
:10243000C301B2010E948D1482E794E00E949D03C3
:10244000C701B6010E948D148FE694E00E949D039F
:102450008EE392E00E9481072FB7F8948091CB021F
:102460009091CC02A091CD02B091CE022FBF80936B
:10247000C7029093C802A093C902B093CA020E94F7
:10248000890240CF26013701E89477F82FEF3FEF1C
:102490004FE75FE7C301B2010E94601681110DC0D2
:1024A0002FEF3FEF4FE75FE7C301B2010E94161421
:1024B00018161CF482E692E070CF2FEF3FEF4FE743
:1024C0005FE4C701B6010E949C1518161CF486E64D
:1024D00092E063CF2FEF3FEF4FE75FECC701B6010C
:1024E0000E94161487FDF3CF20E030E0A901C70158
:1024F000B6010E94161487FF09C06DE281E493E0E3
:102500000E941C02F7FAF094F7F8F0942AE037EDF5
:1025100043EA5BE3C701B6010E9438132B013C017B
:102520000E9494146B017C010E94C3149B01AC01B6
:10253000C301B2010E9437132B013C014AE0C701DD
:10254000B6010E948E076EE281E493E00E941C02B5
:1025500020E030E040E251E4C301B2010E94A9153D
:102560002B013C010E9494146B01F12CE12C4AE0F8
:10257000C701B6010E948E07C701B6010E94C314AD
:102580009B01AC01C301B2010E94371320E030E08F
:1025900040E251E40E94A9150E94941490E080E06A
:1025A0004AE00E948E07FBCE052E97FB1EF4009496
:1025B0000E94EB1257FD07D00E94061307FC03D0C0
:1025C0004EF40C94EB1250954095309521953F4F69
:1025D0004F4F5F4F089590958095709561957F4F0F
:1025E0008F4F9F4F08950E942813A59F900DB49F71
:1025F000900DA49F800D911D11240895B7FF0C9498
:10260000F3120E94F312821B930B0895A1E21A2E7B
:10261000AA1BBB1BFD010DC0AA1FBB1FEE1FFF1F86
:10262000A217B307E407F50720F0A21BB30BE40BD6
:10263000F50B661F771F881F991F1A9469F760951D
:102640007095809590959B01AC01BD01CF010895D7
:10265000A29FB001B39FC001A39F700D811D1124E3
:10266000911DB29F700D811D1124911D0895505828
:10267000BB27AA270E944F130C9462150E94541581
:1026800038F00E945B1520F039F49F3F19F426F4CE
:102690000C942A150EF4E095E7FB0C942415E92F11
:1026A0000E94731558F3BA176207730784079507DA
:1026B00020F079F4A6F50C9495150EF4E0950B2E08
:1026C000BA2FA02D0B01B90190010C01CA01A00184
:1026D0001124FF27591B99F0593F50F4503E68F1DF
:1026E0001A16F040A22F232F342F4427585FF3CF20
:1026F000469537952795A795F0405395C9F77EF4F1
:102700001F16BA0B620B730B840BBAF09150A1F039
:10271000FF0FBB1F661F771F881FC2F70EC0BA0FBF
:10272000621F731F841F48F4879577956795B79547
:10273000F7959E3F08F0B0CF9395880F08F0992742
:10274000EE0F9795879508950E94541560F080E8E4
:1027500091E009F49EEF0E945B1528F040E851E0FB
:1027600071F45EEF0CC00C942A150C949515E92FAA
:10277000E0780E94731540F3092E052AB1F326175D
:1027800037074807590738F00E2E07F8E02569F09B
:10279000E025E0640AC0EF6307F8009407FADB0164
:1027A000B9019D01DC01CA01AD01EF930E94321411
:1027B0000E9462150E94E7135F91552339F02BEDBB
:1027C0003FE049E450FD49EC0C9438130895DF9341
:1027D000DD27B92FBF7740E85FE3161617064807D5
:1027E0005B0718F4D92F0E94A1159F938F937F93B5
:1027F0006F930E945C16E4EEF0E00E942D150E949B
:1028000062152F913F914F915F910E94BC15DD237E
:1028100051F09058A2EA2AED3FE049EC5FE3D0780E
:102820005D270E944F13DF910C9462150E940015E2
:1028300008F481E008950E942F140C9462150E9400
:102840005B1558F00E94541540F029F45F3F29F0C1
:102850000C94241551110C9496150C942A150E9471
:10286000731568F39923B1F3552391F3951B550B19
:10287000BB27AA2762177307840738F09F5F5F4F53
:10288000220F331F441FAA1FA9F335D00E2E3AF092
:10289000E0E832D091505040E695001CCAF72BD0AA
:1028A000FE2F29D0660F771F881FBB1F26173707FB
:1028B0004807AB07B0E809F0BB0B802DBF01FF272D
:1028C00093585F4F3AF09E3F510578F00C942415D1
:1028D0000C9496155F3FE4F3983ED4F38695779574
:1028E0006795B795F7959F5FC9F7880F911D9695E6
:1028F000879597F90895E1E0660F771F881FBB1F42
:10290000621773078407BA0720F0621B730B840BEE
:10291000BA0BEE1F88F7E09508950E94941468940E
:10292000B1110C94961508950E947B1588F09F575D
:1029300098F0B92F9927B751B0F0E1F0660F771FE3
:10294000881F991F1AF0BA95C9F714C0B13091F0D9
:102950000E949515B1E008950C949515672F782F76
:102960008827B85F39F0B93FCCF38695779567959E
:10297000B395D9F73EF490958095709561957F4F0A
:102980008F4F9F4F0895E89409C097FB3EF49095B0
:102990008095709561957F4F8F4F9F4F9923A9F038
:1029A000F92F96E9BB279395F695879577956795C7
:1029B000B795F111F8CFFAF4BB0F11F460FF1BC00B
:1029C0006F5F7F4F8F4F9F4F16C0882311F096E99E
:1029D00011C0772321F09EE8872F762F05C066234C
:1029E00071F096E8862F70E060E02AF09A95660F05
:1029F000771F881FDAF7880F9695879597F90895BE
:102A0000990F0008550FAA0BE0E8FEEF16161706FF
:102A1000E807F907C0F012161306E407F50798F067
:102A2000621B730B840B950B39F40A2661F0232B80
:102A3000242B252B21F408950A2609F4A140A695FC
:102A40008FEF811D811D089597F99F6780E870E0E1
:102A500060E008959FEF80EC0895DF93CF931F937C
:102A60000F93FF92EF92DF927B018C01689406C076
:102A7000DA2EEF010E94BC15FE01E894A591259184
:102A8000359145915591A6F3EF010E944F13FE0138
:102A90009701A801DA9469F7DF90EF90FF900F910A
:102AA0001F91CF91DF91089500240A9416161706FE
:102AB00018060906089500240A941216130614062F
:102AC00005060895092E0394000C11F4882352F092
:102AD000BB0F40F4BF2B11F460FF04C06F5F7F4F4A
:102AE0008F4F9F4F089557FD9058440F551F59F031
:102AF0005F3F71F04795880F97FB991F61F09F3FEB
:102B000079F087950895121613061406551FF2CF13
:102B10004695F1DF08C0161617061806991FF1CF63
:102B200086957105610508940895E894BB2766278A
:102B30007727CB0197F908950E94001508F48FEFCD
:102B400008959B01AC0160E070E080E89FE30C9485
:102B50001B140E94BC150C9462150E94541538F089
:102B60000E945B1520F0952311F00C9424150C9411
:102B70002A1511240C9496150E94731570F3959FD5
:102B8000C1F3950F50E0551F629FF001729FBB2764
:102B9000F00DB11D639FAA27F00DB11DAA1F649F00
:102BA0006627B00DA11D661F829F2227B00DA11DB3
:102BB000621F739FB00DA11D621F839FA00D611D39
:102BC000221F749F3327A00D611D231F849F600D5A
:102BD000211D822F762F6A2F11249F5750409AF083
:102BE000F1F088234AF0EE0FFF1FBB1F661F771F0F
:102BF000881F91505040A9F79E3F510580F00C94DA
:102C000024150C9496155F3FE4F3983ED4F3869513
:102C100077956795B795F795E7959F5FC1F7FE2B79
:102C2000880F911D9695879597F9089519F416F4D4
:102C30000C942A150C9465160E947B15B8F3992301
:102C4000C9F3B6F39F57550B87FF0E9473160024F4
:102C5000A0E640EA900180585695979528F4805C4C
:102C6000660F771F881F20F026173707480730F4B4
:102C7000621B730B840B202931294A2BA6951794CC
:102C80000794202531254A2758F7660F771F881F9C
:102C900020F026173707480730F4620B730B840BBC
:102CA000200D311D411DA09581F7B901842F915848
:102CB000880F9695879508959B01AC010C94A915F2
:102CC0000E940015880B990B08959F3F31F0915099
:102CD00020F4879577956795B795880F911D969500
:102CE000879597F9089591505040660F771F881F78
:102CF000D2F70895991B79E004C0991F961708F040
:102D0000961B881F7A95C9F780950895EE0FFF1FCF
:102D1000881F8BBF0790F691E02D1994F894FFCF90
:102D2000000000001C028601B3016902E401C20137
:102D3000D601000000004F0722077E07F8061B0798
:102D40000807F9065374617274696E67204553432E
:102D5000732043616C6962726174696F6E000D0A61
:102D60000046696E69736865642043616C696272CC
:102D70006174696F6E00726F6C6C203A20006E6136
:0A2D80006E00696E66006F76660053
:00000001FF
